:1000000019C020C01FC01EC01DC01CC01BC01AC00C
:1000100019C018C017C016C015C014C013C012C034
:1000200011C010C00FC00EC00DC00CC00BC00AC064
:1000300009C008C011241FBECFEFD4E0DEBFCDBF82
:10004000D3D079C1DDCF8091C00087FFFCCF089568
:1000500086E090E09093C5008093C40088E180938F
:10006000C10086E08093C20008959091C00095FF82
:10007000FCCF8093C60008958091C00087FFFCCF1D
:100080008091C60090E0089580E184B980E48CBD41
:1000900008950DB407FEFDCF8EB590E008958EBD96
:1000A0000DB407FEFDCF08951092850010928400D4
:1000B00087E391E0909387008093860082EA8093A3
:1000C00080008BE1809381000895CF93DF93E1DF7F
:1000D000EC01DFDF219729F4909389008093880059
:1000E00004C090938B0080938A00DF91CF91089594
:1000F000A8E8B0E081E090E011969C938E93EAE846
:10010000F0E0918380832FEF89E698E121508040D1
:100110009040E1F700C0000084E190E011969C93CC
:100120008E93918380832FEF89E698E12150804060
:100130009040E1F700C0000086E290E011969C93A9
:100140008E93918380832FEF89E698E12150804040
:100150009040E1F700C0000087E190E011969C9389
:100160008E93918380832FEF89E698E12150804020
:100170009040E1F700C000000895ECE7F0E08081D6
:1001800080648083EAE7F0E0808187688083089557
:1001900087709927806480937C0080917A008064C6
:1001A00080937A0080917A0084FFFCCF80917A005E
:1001B000806180937A0010927C00209178003091C9
:1001C0007900C901089544DF6FDFD7DF5DDF82E08A
:1001D00084B986E190E090938900809388009093A1
:1001E0008B0080938A000895EEDFC1E0D0E051DFFC
:1001F0008230910581F01CF40197C9F706C0833065
:100200009105C1F0049799F772C043DF909389007C
:1002100080938800ECCF3DDFBBDF9C0197FF02C0DD
:1002200021503C4F232F330F330B2595259580E02C
:10023000922F7FC02EDF8C018330910541F13CF479
:100240008130910561F08230910589F614C08530C6
:100250009105A9F144F18630910549F63CC0F5B00D
:1002600018DF980102C0220F331F8A95E2F7C901F7
:100270008F2985B9BCCF18B10CDF9E0102C0220FB7
:10028000331F8A95E2F7C901812B88B9B0CF1BB122
:1002900000DF9E0102C0220F331F8A95E2F7C901D9
:1002A000812B8BB9A4CF14B1F4DE9E0102C0220FC2
:1002B000331F8A95E2F7C901812B84B998CF17B112
:1002C000E8DE9E0102C0220F331F8A95E2F7C901C2
:1002D000812B87B98CCF1AB1DCDE9E0102C0220FC0
:1002E000331F8A95E2F7C901812B8AB980CFD1DE0D
:1002F0008830910541F08930910539F0079709F070
:1003000076CF13B103C016B101C019B1C2DE9E0190
:1003100002C0220F331F8A95E2F7C90121E030E0C5
:100320001816190614F020E030E0812F90E08223A7
:0A0330009323B5DE5CCFF894FFCFF5
:00000001FF
